:100000000C9434000C9451000C9451000C94510049
:100010000C9451000C9451000C9451000C9451001C
:100020000C9451000C9451000C9451000C9451000C
:100030000C9451000C9451000C9451000C945100FC
:100040000C944A020C9451000C9451000C945100F1
:100050000C9451000C9451000C9451000C945100DC
:100060000C9451000C94510011241FBECFEFD8E026
:10007000DEBFCDBF11E0A0E0B1E0E2EBFCE002C0EA
:1000800005900D92A430B107D9F711E0A4E0B1E0DA
:1000900001C01D92A031B107E1F70E94B9020C9492
:1000A00057060C9400008130910591F4539A8FEF1C
:1000B0008093B4008091B00080628093B00082E0B1
:1000C0008093B1008091B00083608093B000089568
:1000D000892BA9F453981092B4008091B0008F7DC1
:1000E0008093B0008091B1008D7F8093B1008091AA
:1000F000B0008E7F8093B00084B58D7F84BD08955D
:100100008130910561F4559A8FEF88BD84B5806286
:1001100084BD82E085BD84B5836084BD0895892B4C
:1001200071F4559818BC84B58F7D84BD85B58D7FDD
:1001300085BD84B58E7F84BD84B58D7F84BD0895D3
:100140008130910561F4569A8FEF87BD84B5806840
:1001500084BD82E085BD84B5836084BD0895892B0C
:1001600071F4569817BC84B58F7784BD85B58D7FA3
:1001700085BD84B58E7F84BD84B58D7F84BD089593
:100180008130910591F4239A8FEF8093B300809191
:10019000B00080688093B00082E08093B1008091CD
:1001A000B00083608093B0000895892BB9F4239840
:1001B0001092B3008091B0008F778093B00080914F
:1001C000B1008D7F8093B1008091B0008E7F8093CD
:1001D000B0008091B0008D7F8093B0000895809131
:1001E0000401909105018330910569F184309105F6
:1001F0004CF481309105A9F082309105ECF4892B03
:1002000069F048C08530910561F18530910534F180
:100210008630910569F10797E9F52DC080E090E0FF
:100220002CC080E090E00E94530080E090E00E94AB
:10023000800081E090E029C080E090E00E945300BF
:1002400080E090E006C080E090E00E94530081E0F2
:1002500090E00E94800081E090E026C080E090E085
:1002600002C081E090E00E94530081E090E018C05D
:1002700081E090E011C081E090E00E94530080E0B6
:1002800090E00E94800080E090E00E94A00081E069
:1002900090E00EC080E090E00E94530080E090E08B
:1002A0000E94800080E090E00E94A00080E090E04A
:1002B0000E94C000809104019091050101969093E5
:1002C000050180930401089721F410920501109212
:1002D00004010895809106019091070183309105F2
:1002E00029F1843091054CF481309105A9F08230D8
:1002F0009105ACF4892B69F048C08530910541F136
:1003000085309105D4F08630910569F10797E9F5BC
:100310002DC081E090E03BC081E090E002C080E031
:1003200090E00E94530081E090E035C080E090E0D2
:100330000E94530081E090E006C080E090E00E94BF
:10034000530080E090E00E94800081E090E027C0B0
:1003500080E090E00E94530080E090E00E948000E6
:1003600081E090E00DC080E090E002C081E090E08C
:100370000E94530080E090E00E94800080E090E0C6
:100380000E94A00081E090E00EC080E090E00E941A
:10039000530080E090E00E94800080E090E00E94A6
:1003A000A00080E090E00E94C00080910601909142
:1003B000070101969093070180930601089721F4A5
:1003C000109207011092060108950F931F93CF9387
:1003D000DF930197A1F4C0E0D0E000EA1FE008C07D
:1003E00081E090E00E94EF00C8010197F1F72196AB
:1003F0008091000190910101C817D9078CF3DF911A
:10040000CF911F910F9108950F931F93CF93DF9377
:100410000197A1F4C0E0D0E000EA1FE008C081E04D
:1004200090E00E946A01C8010197F1F7219680913E
:10043000000190910101C817D9078CF3DF91CF918A
:100440001F910F91089580E090E00E94530080E09A
:1004500090E00E94800080E090E00E94A00080E098
:1004600090E00E94C000089580E090E00E94E501C5
:1004700080E090E00E94040285B5846085BDEEE6D0
:10048000F0E0808181608083789420982598399A63
:10049000389A08951F920F920FB60F9211242F933E
:1004A0003F934F935F938F939F9320910A013091D5
:1004B0000B0180910201482F50E083B190E08170E0
:1004C0009070220F331F24233523822B932B90937C
:1004D0000B0180930A0120910A0130910B0183B135
:1004E00082958695877090E081709070220F331FFF
:1004F00024233523822B932B90930D0180930C01A1
:1005000080910A0190910B018417950731F481E0E5
:1005100090E090930F0180930E0180910A019091D9
:100520000B01892B21F410920F0110920E01809182
:100530000C0190910D018417950731F481E090E052
:1005400090930F0180930E0180910C0190910D0109
:10055000892B21F410920F0110920E019F918F911F
:100560005F914F913F912F910F900FBE0F901F9071
:1005700018950F931F93DF93CF9300D0CDB7DEB7BD
:100580000E9434020E9456038E010F5F1F4F18997C
:100590002EC02FC0C8010E947D0389819A81C29715
:1005A00010F50E94230280E090E00E94E50180E0C7
:1005B00090E00E940402419A409881E090E00E94FD
:1005C000E50111C00E94230280E090E00E94E50155
:1005D00080E090E00E9404024198409A81E090E01F
:1005E0000E94040204C089819A81C39758F71D9B19
:1005F000D1CF1D9BCCCF4198409880E090E00E94E5
:10060000E50180E090E00E940402C1CF982F84EAC7
:100610008093BC008091BC0087FFFCCF9093BB000F
:1006200084E88093BC008091BC0087FFFCCF0895D4
:100630008093BB0084E88093BC008091BC0087FF5E
:10064000FCCF0895882311F084EC01C084E88093E6
:10065000BC008091BC0087FFFCCF8091BB00089557
:1006600084E98093BC00089586E40E94060383E138
:100670008093BB0084E88093BC008091BC0087FF1E
:10068000FCCF84E98093BC00089586E40E940603B1
:1006900080E18093BB0084E88093BC008091BC0023
:1006A00087FFFCCF84E98093BC00089588E48093A1
:1006B000B80086E40E94060381E08093BB0084E8D2
:1006C0008093BC008091BC0087FFFCCF84E98093BD
:1006D000BC000E944503089586E40E94060381E160
:1006E0008093BB0084E88093BC008091BC0087FFAE
:1006F000FCCF84E98093BC000895CF93DF93EC0195
:1007000087E40E94060384EC8093BC008091BC00C7
:1007100087FFFCCF9091BB0084E88093BC00809160
:10072000BC0087FFFCCF8091BB0024E92093BC0074
:10073000392F20E090E0282B392B3983288381E062
:10074000DF91CF910895ABE0B0E0E9EAF3E00C94DB
:1007500020063C012B015A01FC011782168283817D
:1007600081FD03C06FEF7FEFC6C19AE0892E1E01A5
:100770000894211C311CF3012381F20123FD859192
:1007800023FF81912F01882309F4B2C1853239F406
:1007900023FD859123FF81912F01853229F490E07B
:1007A000B3010E949605E7CF982FFF24EE249924E9
:1007B000FFE1FF15D0F09B3269F09C3228F49032B3
:1007C00059F0933291F40EC09D3249F0903369F4A0
:1007D00041E024C052E0F52A84E0F82A28C098E0DD
:1007E000F92A25C0E0E1FE2A22C0F7FC29C0892FA2
:1007F00080538A3070F4F6FE05C0989C902C11242A
:10080000980E15C0E89CE02C1124E80EF0E2FF2AB7
:100810000EC09E3229F4F6FC6BC140E4F42A07C0F6
:100820009C3619F450E8F52A02C0983649F4F201D2
:1008300023FD959123FF91912F01992309F0B8CFC2
:10084000892F8554833018F08052833038F444E087
:1008500050E0A40EB51E5FE359830FC0933631F00C
:10086000933779F0933509F056C020C0F5018081A7
:10087000898342E050E0A40EB51E610101E010E062
:1008800012C0F501C080D180F6FC03C06FEF7FEF8E
:1008900002C0692D70E042E050E0A40EB51EC60112
:1008A0000E948B058C015FE7F52214C0F501C08022
:1008B000D180F6FC03C06FEF7FEF02C0692D70E0BE
:1008C00042E050E0A40EB51EC6010E9480058C01D6
:1008D00050E8F52AF3FE07C01AC080E290E0B301A9
:1008E0000E949605EA948E2D90E008171907A8F348
:1008F0000EC0F601F7FC8591F7FE81916F0190E043
:10090000B3010E949605E110EA94015010400115D0
:10091000110579F7EAC0943611F0993669F5F7FEBA
:1009200008C0F501208131814281538184E090E04B
:100930000AC0F501808191819C01442737FD4095D3
:10094000542F82E090E0A80EB91E9FE6F92257FFCF
:1009500009C050954095309521953F4F4F4F5F4FBF
:10096000E0E8FE2ACA01B901A1012AE030E00E94B4
:10097000C205D82ED21840C0953729F41F2D1F7EEE
:100980002AE030E01DC01F2D197F9F3661F090379F
:1009900020F4983509F0ACC00FC0903739F0983783
:1009A00009F0A6C004C028E030E00AC0106114FDC0
:1009B000146020E130E004C014FD166020E132E054
:1009C00017FF08C0F501608171818281938144E045
:1009D00050E008C0F50180819181BC0180E090E089
:1009E00042E050E0A40EB51EA1010E94C205D82E1F
:1009F000D2188FE7F82EF122F6FE0BC05EEFF5223B
:100A0000D91438F4F4FE07C0F2FC05C08FEEF822CA
:100A100002C01D2D01C0192DF4FE0DC0FE01ED0D0B
:100A2000F11D8081803319F499EEF92208C01F5F0F
:100A3000F2FE05C003C08F2D867809F01F5F0F2DD1
:100A4000F3FC14C0F0FE0FC01E1510F09D2C0BC05F
:100A50009D2C9E0C911A1E2D06C080E290E0B301E1
:100A60000E9496051F5F1E15C0F304C01E1510F4EA
:100A7000E11A01C0EE2404FF0FC080E390E0B3014F
:100A80000E94960502FF1DC001FD03C088E790E0AB
:100A90000EC088E590E00BC0802F867891F001FFB2
:100AA00002C08BE201C080E2F7FC8DE290E0B3016E
:100AB0000E94960506C080E390E0B3010E9496056F
:100AC0009A94D914C0F3DA94F101ED0DF11D8081EF
:100AD00090E0B3010E949605DD20A9F706C080E2F0
:100AE00090E0B3010E949605EA94EE20C1F743CE50
:100AF000F30166817781CB012B96E2E10C943C06F1
:100B0000FC010590615070400110D8F780959095D8
:100B10008E0F9F1F0895FC016150704001900110DD
:100B2000D8F7809590958E0F9F1F08950F931F9370
:100B3000CF93DF938C01EB018B8181FF1BC082FF80
:100B40000DC02E813F818C819D812817390764F467
:100B5000E881F9810193F983E88306C0E885F98586
:100B6000802F0995892B31F48E819F8101969F8377
:100B70008E8302C00FEF1FEFC801DF91CF911F914D
:100B80000F910895FA01AA27283051F1203181F1FF
:100B9000E8946F936E7F6E5F7F4F8F4F9F4FAF4F85
:100BA000B1E03ED0B4E03CD0670F781F891F9A1F98
:100BB000A11D680F791F8A1F911DA11D6A0F711D4C
:100BC000811D911DA11D20D009F468943F912AE058
:100BD000269F11243019305D3193DEF6CF01089540
:100BE000462F4770405D4193B3E00FD0C9F7F6CF71
:100BF000462F4F70405D4A3318F0495D31FD405239
:100C0000419302D0A9F7EACFB4E0A69597958795CE
:100C100077956795BA95C9F70097610571050895AD
:100C20009B01AC010A2E0694579547953795279559
:100C3000BA95C9F7620F731F841F951FA01D0895F1
:100C40002F923F924F925F926F927F928F929F92DC
:100C5000AF92BF92CF92DF92EF92FF920F931F93CA
:100C6000CF93DF93CDB7DEB7CA1BDB0B0FB6F8947B
:100C7000DEBF0FBECDBF09942A88398848885F84BB
:100C80006E847D848C849B84AA84B984C884DF802C
:100C9000EE80FD800C811B81AA81B981CE0FD11D10
:100CA0000FB6F894DEBF0FBECDBFED010895F894E6
:020CB000FFCF74
:040CB20000101F000F
:00000001FF
